{
    "_format": "hh-sol-artifact-1",
    "contractName": "NFTContract",
    "sourceName": "contracts/NFTcontract.sol",
    "abi": [
        {
            "inputs": [],
            "stateMutability": "nonpayable",
            "type": "constructor"
        },
        {
            "anonymous": false,
            "inputs": [
                {
                    "indexed": true,
                    "internalType": "address",
                    "name": "owner",
                    "type": "address"
                },
                {
                    "indexed": true,
                    "internalType": "address",
                    "name": "approved",
                    "type": "address"
                },
                {
                    "indexed": true,
                    "internalType": "uint256",
                    "name": "tokenId",
                    "type": "uint256"
                }
            ],
            "name": "Approval",
            "type": "event"
        },
        {
            "anonymous": false,
            "inputs": [
                {
                    "indexed": true,
                    "internalType": "address",
                    "name": "owner",
                    "type": "address"
                },
                {
                    "indexed": true,
                    "internalType": "address",
                    "name": "operator",
                    "type": "address"
                },
                {
                    "indexed": false,
                    "internalType": "bool",
                    "name": "approved",
                    "type": "bool"
                }
            ],
            "name": "ApprovalForAll",
            "type": "event"
        },
        {
            "anonymous": false,
            "inputs": [
                {
                    "indexed": false,
                    "internalType": "uint256",
                    "name": "_fromTokenId",
                    "type": "uint256"
                },
                {
                    "indexed": false,
                    "internalType": "uint256",
                    "name": "_toTokenId",
                    "type": "uint256"
                }
            ],
            "name": "BatchMetadataUpdate",
            "type": "event"
        },
        {
            "anonymous": false,
            "inputs": [
                {
                    "indexed": false,
                    "internalType": "uint256",
                    "name": "_tokenId",
                    "type": "uint256"
                }
            ],
            "name": "MetadataUpdate",
            "type": "event"
        },
        {
            "anonymous": false,
            "inputs": [
                {
                    "indexed": true,
                    "internalType": "address",
                    "name": "from",
                    "type": "address"
                },
                {
                    "indexed": true,
                    "internalType": "address",
                    "name": "to",
                    "type": "address"
                },
                {
                    "indexed": true,
                    "internalType": "uint256",
                    "name": "tokenId",
                    "type": "uint256"
                }
            ],
            "name": "Transfer",
            "type": "event"
        },
        {
            "inputs": [
                {
                    "internalType": "address",
                    "name": "to",
                    "type": "address"
                },
                {
                    "internalType": "uint256",
                    "name": "tokenId",
                    "type": "uint256"
                }
            ],
            "name": "approve",
            "outputs": [],
            "stateMutability": "nonpayable",
            "type": "function"
        },
        {
            "inputs": [
                {
                    "internalType": "address",
                    "name": "owner",
                    "type": "address"
                }
            ],
            "name": "balanceOf",
            "outputs": [
                {
                    "internalType": "uint256",
                    "name": "",
                    "type": "uint256"
                }
            ],
            "stateMutability": "view",
            "type": "function"
        },
        {
            "inputs": [],
            "name": "createNFT",
            "outputs": [],
            "stateMutability": "nonpayable",
            "type": "function"
        },
        {
            "inputs": [
                {
                    "internalType": "uint256",
                    "name": "tokenId",
                    "type": "uint256"
                }
            ],
            "name": "createSVG",
            "outputs": [
                {
                    "internalType": "string",
                    "name": "",
                    "type": "string"
                }
            ],
            "stateMutability": "pure",
            "type": "function"
        },
        {
            "inputs": [
                {
                    "internalType": "uint256",
                    "name": "tokenId",
                    "type": "uint256"
                }
            ],
            "name": "getApproved",
            "outputs": [
                {
                    "internalType": "address",
                    "name": "",
                    "type": "address"
                }
            ],
            "stateMutability": "view",
            "type": "function"
        },
        {
            "inputs": [],
            "name": "getMyNFTs",
            "outputs": [
                {
                    "internalType": "uint256[]",
                    "name": "",
                    "type": "uint256[]"
                }
            ],
            "stateMutability": "view",
            "type": "function"
        },
        {
            "inputs": [
                {
                    "internalType": "uint256",
                    "name": "tokenId",
                    "type": "uint256"
                }
            ],
            "name": "getNFTID",
            "outputs": [
                {
                    "internalType": "string",
                    "name": "",
                    "type": "string"
                }
            ],
            "stateMutability": "pure",
            "type": "function"
        },
        {
            "inputs": [
                {
                    "internalType": "uint256",
                    "name": "tokenId",
                    "type": "uint256"
                }
            ],
            "name": "getNFTURI",
            "outputs": [
                {
                    "internalType": "string",
                    "name": "",
                    "type": "string"
                }
            ],
            "stateMutability": "pure",
            "type": "function"
        },
        {
            "inputs": [
                {
                    "internalType": "address",
                    "name": "owner",
                    "type": "address"
                },
                {
                    "internalType": "address",
                    "name": "operator",
                    "type": "address"
                }
            ],
            "name": "isApprovedForAll",
            "outputs": [
                {
                    "internalType": "bool",
                    "name": "",
                    "type": "bool"
                }
            ],
            "stateMutability": "view",
            "type": "function"
        },
        {
            "inputs": [],
            "name": "name",
            "outputs": [
                {
                    "internalType": "string",
                    "name": "",
                    "type": "string"
                }
            ],
            "stateMutability": "view",
            "type": "function"
        },
        {
            "inputs": [
                {
                    "internalType": "uint256",
                    "name": "tokenId",
                    "type": "uint256"
                }
            ],
            "name": "ownerOf",
            "outputs": [
                {
                    "internalType": "address",
                    "name": "",
                    "type": "address"
                }
            ],
            "stateMutability": "view",
            "type": "function"
        },
        {
            "inputs": [
                {
                    "internalType": "address",
                    "name": "from",
                    "type": "address"
                },
                {
                    "internalType": "address",
                    "name": "to",
                    "type": "address"
                },
                {
                    "internalType": "uint256",
                    "name": "tokenId",
                    "type": "uint256"
                }
            ],
            "name": "safeTransferFrom",
            "outputs": [],
            "stateMutability": "nonpayable",
            "type": "function"
        },
        {
            "inputs": [
                {
                    "internalType": "address",
                    "name": "from",
                    "type": "address"
                },
                {
                    "internalType": "address",
                    "name": "to",
                    "type": "address"
                },
                {
                    "internalType": "uint256",
                    "name": "tokenId",
                    "type": "uint256"
                },
                {
                    "internalType": "bytes",
                    "name": "data",
                    "type": "bytes"
                }
            ],
            "name": "safeTransferFrom",
            "outputs": [],
            "stateMutability": "nonpayable",
            "type": "function"
        },
        {
            "inputs": [
                {
                    "internalType": "address",
                    "name": "operator",
                    "type": "address"
                },
                {
                    "internalType": "bool",
                    "name": "approved",
                    "type": "bool"
                }
            ],
            "name": "setApprovalForAll",
            "outputs": [],
            "stateMutability": "nonpayable",
            "type": "function"
        },
        {
            "inputs": [
                {
                    "internalType": "bytes4",
                    "name": "interfaceId",
                    "type": "bytes4"
                }
            ],
            "name": "supportsInterface",
            "outputs": [
                {
                    "internalType": "bool",
                    "name": "",
                    "type": "bool"
                }
            ],
            "stateMutability": "view",
            "type": "function"
        },
        {
            "inputs": [],
            "name": "symbol",
            "outputs": [
                {
                    "internalType": "string",
                    "name": "",
                    "type": "string"
                }
            ],
            "stateMutability": "view",
            "type": "function"
        },
        {
            "inputs": [
                {
                    "internalType": "uint256",
                    "name": "index",
                    "type": "uint256"
                }
            ],
            "name": "tokenByIndex",
            "outputs": [
                {
                    "internalType": "uint256",
                    "name": "",
                    "type": "uint256"
                }
            ],
            "stateMutability": "view",
            "type": "function"
        },
        {
            "inputs": [
                {
                    "internalType": "address",
                    "name": "owner",
                    "type": "address"
                },
                {
                    "internalType": "uint256",
                    "name": "index",
                    "type": "uint256"
                }
            ],
            "name": "tokenOfOwnerByIndex",
            "outputs": [
                {
                    "internalType": "uint256",
                    "name": "",
                    "type": "uint256"
                }
            ],
            "stateMutability": "view",
            "type": "function"
        },
        {
            "inputs": [
                {
                    "internalType": "uint256",
                    "name": "tokenId",
                    "type": "uint256"
                }
            ],
            "name": "tokenURI",
            "outputs": [
                {
                    "internalType": "string",
                    "name": "",
                    "type": "string"
                }
            ],
            "stateMutability": "view",
            "type": "function"
        },
        {
            "inputs": [],
            "name": "totalSupply",
            "outputs": [
                {
                    "internalType": "uint256",
                    "name": "",
                    "type": "uint256"
                }
            ],
            "stateMutability": "view",
            "type": "function"
        },
        {
            "inputs": [
                {
                    "internalType": "address",
                    "name": "from",
                    "type": "address"
                },
                {
                    "internalType": "address",
                    "name": "to",
                    "type": "address"
                },
                {
                    "internalType": "uint256",
                    "name": "tokenId",
                    "type": "uint256"
                }
            ],
            "name": "transferFrom",
            "outputs": [],
            "stateMutability": "nonpayable",
            "type": "function"
        },
        {
            "inputs": [
                {
                    "internalType": "address",
                    "name": "recipient",
                    "type": "address"
                },
                {
                    "internalType": "uint256",
                    "name": "tokenId",
                    "type": "uint256"
                }
            ],
            "name": "transferMyNFT",
            "outputs": [],
            "stateMutability": "nonpayable",
            "type": "function"
        }
    ],
    "bytecode": "0x60806040523480156200001157600080fd5b506040518060400160405280600d81526020017f4d794e4654436f6e7472616374000000000000000000000000000000000000008152506040518060400160405280600481526020017f4d4e46540000000000000000000000000000000000000000000000000000000081525081600090816200008f919062000324565b508060019081620000a1919062000324565b5050506200040b565b600081519050919050565b7f4e487b7100000000000000000000000000000000000000000000000000000000600052604160045260246000fd5b7f4e487b7100000000000000000000000000000000000000000000000000000000600052602260045260246000fd5b600060028204905060018216806200012c57607f821691505b602082108103620001425762000141620000e4565b5b50919050565b60008190508160005260206000209050919050565b60006020601f8301049050919050565b600082821b905092915050565b600060088302620001ac7fffffffffffffffffffffffffffffffffffffffffffffffffffffffffffffffff826200016d565b620001b886836200016d565b95508019841693508086168417925050509392505050565b6000819050919050565b6000819050919050565b600062000205620001ff620001f984620001d0565b620001da565b620001d0565b9050919050565b6000819050919050565b6200022183620001e4565b6200023962000230826200020c565b8484546200017a565b825550505050565b600090565b6200025062000241565b6200025d81848462000216565b505050565b5b8181101562000285576200027960008262000246565b60018101905062000263565b5050565b601f821115620002d4576200029e8162000148565b620002a9846200015d565b81016020851015620002b9578190505b620002d1620002c8856200015d565b83018262000262565b50505b505050565b600082821c905092915050565b6000620002f960001984600802620002d9565b1980831691505092915050565b6000620003148383620002e6565b9150826002028217905092915050565b6200032f82620000aa565b67ffffffffffffffff8111156200034b576200034a620000b5565b5b62000357825462000113565b6200036482828562000289565b600060209050601f8311600181146200039c576000841562000387578287015190505b62000393858262000306565b86555062000403565b601f198416620003ac8662000148565b60005b82811015620003d657848901518255600182019150602085019450602081019050620003af565b86831015620003f65784890151620003f2601f891682620002e6565b8355505b6001600288020188555050505b505050505050565b615350806200041b6000396000f3fe608060405234801561001057600080fd5b50600436106101415760003560e01c8063629cb2e4116100b857806395d89b411161007c57806395d89b411461039a578063a22cb465146103b8578063b88d4fde146103d4578063c87b56dd146103f0578063e985e9c514610420578063fa92e2611461045057610141565b8063629cb2e4146102f65780636352211e146103145780636df0443d1461034457806370a08231146103605780638a97ec2a1461039057610141565b806318160ddd1161010a57806318160ddd1461021057806323b872dd1461022e5780632f745c591461024a57806342842e0e1461027a5780634e4007f0146102965780634f6ccce7146102c657610141565b8062621fda1461014657806301ffc9a71461017657806306fdde03146101a6578063081812fc146101c4578063095ea7b3146101f4575b600080fd5b610160600480360381019061015b9190612643565b610480565b60405161016d9190612700565b60405180910390f35b610190600480360381019061018b919061277a565b6104e8565b60405161019d91906127c2565b60405180910390f35b6101ae6104fa565b6040516101bb9190612700565b60405180910390f35b6101de60048036038101906101d99190612643565b61058c565b6040516101eb919061281e565b60405180910390f35b61020e60048036038101906102099190612865565b6105d2565b005b6102186106e9565b60405161022591906128b4565b60405180910390f35b610248600480360381019061024391906128cf565b6106f6565b005b610264600480360381019061025f9190612865565b610756565b60405161027191906128b4565b60405180910390f35b610294600480360381019061028f91906128cf565b6107fb565b005b6102b060048036038101906102ab9190612643565b61081b565b6040516102bd9190612700565b60405180910390f35b6102e060048036038101906102db9190612643565b610879565b6040516102ed91906128b4565b60405180910390f35b6102fe6108ea565b60405161030b91906129e0565b60405180910390f35b61032e60048036038101906103299190612643565b610998565b60405161033b919061281e565b60405180910390f35b61035e60048036038101906103599190612865565b610a1e565b005b61037a60048036038101906103759190612a02565b610ba3565b60405161038791906128b4565b60405180910390f35b610398610c5a565b005b6103a2610c91565b6040516103af9190612700565b60405180910390f35b6103d260048036038101906103cd9190612a5b565b610d23565b005b6103ee60048036038101906103e99190612bd0565b610d39565b005b61040a60048036038101906104059190612643565b610d9b565b6040516104179190612700565b60405180910390f35b61043a60048036038101906104359190612c53565b610dad565b60405161044791906127c2565b60405180910390f35b61046a60048036038101906104659190612643565b610e41565b6040516104779190612700565b60405180910390f35b6060600061048d83610e53565b6104968461081b565b6040516020016104a7929190612f55565b60405160208183030381529060405290506104c181610f21565b6040516020016104d1919061301d565b604051602081830303815290604052915050919050565b60006104f382611084565b9050919050565b6060600080546105099061306e565b80601f01602080910402602001604051908101604052809291908181526020018280546105359061306e565b80156105825780601f1061055757610100808354040283529160200191610582565b820191906000526020600020905b81548152906001019060200180831161056557829003601f168201915b5050505050905090565b6000610597826110e5565b6004600083815260200190815260200160002060009054906101000a900473ffffffffffffffffffffffffffffffffffffffff169050919050565b60006105dd82610998565b90508073ffffffffffffffffffffffffffffffffffffffff168373ffffffffffffffffffffffffffffffffffffffff160361064d576040517f08c379a000000000000000000000000000000000000000000000000000000000815260040161064490613111565b60405180910390fd5b8073ffffffffffffffffffffffffffffffffffffffff1661066c611130565b73ffffffffffffffffffffffffffffffffffffffff16148061069b575061069a81610695611130565b610dad565b5b6106da576040517f08c379a00000000000000000000000000000000000000000000000000000000081526004016106d1906131a3565b60405180910390fd5b6106e48383611138565b505050565b6000600880549050905090565b610707610701611130565b826111f1565b610746576040517f08c379a000000000000000000000000000000000000000000000000000000000815260040161073d90613235565b60405180910390fd5b610751838383611286565b505050565b600061076183610ba3565b82106107a2576040517f08c379a0000000000000000000000000000000000000000000000000000000008152600401610799906132c7565b60405180910390fd5b600660008473ffffffffffffffffffffffffffffffffffffffff1673ffffffffffffffffffffffffffffffffffffffff168152602001908152602001600020600083815260200190815260200160002054905092915050565b61081683838360405180602001604052806000815250610d39565b505050565b6060600061082883610e41565b6040516020016108389190614566565b604051602081830303815290604052905061085281610f21565b6040516020016108629190614616565b604051602081830303815290604052915050919050565b60006108836106e9565b82106108c4576040517f08c379a00000000000000000000000000000000000000000000000000000000081526004016108bb906146aa565b60405180910390fd5b600882815481106108d8576108d76146ca565b5b90600052602060002001549050919050565b606060006108f733610ba3565b67ffffffffffffffff8111156109105761090f612aa5565b5b60405190808252806020026020018201604052801561093e5781602001602082028036833780820191505090505b50905060005b61094d33610ba3565b8110156109905761095e3382610756565b828281518110610971576109706146ca565b5b602002602001018181525050808061098890614728565b915050610944565b508091505090565b6000806109a48361157f565b9050600073ffffffffffffffffffffffffffffffffffffffff168173ffffffffffffffffffffffffffffffffffffffff1603610a15576040517f08c379a0000000000000000000000000000000000000000000000000000000008152600401610a0c906147bc565b60405180910390fd5b80915050919050565b610a27816115bc565b610a66576040517f08c379a0000000000000000000000000000000000000000000000000000000008152600401610a5d90614828565b60405180910390fd5b610a7033826111f1565b610aaf576040517f08c379a0000000000000000000000000000000000000000000000000000000008152600401610aa6906148ba565b60405180910390fd5b3373ffffffffffffffffffffffffffffffffffffffff16610acf82610998565b73ffffffffffffffffffffffffffffffffffffffff1614610b25576040517f08c379a0000000000000000000000000000000000000000000000000000000008152600401610b1c9061494c565b60405180910390fd5b600073ffffffffffffffffffffffffffffffffffffffff168273ffffffffffffffffffffffffffffffffffffffff1603610b94576040517f08c379a0000000000000000000000000000000000000000000000000000000008152600401610b8b906149de565b60405180910390fd5b610b9f3383836107fb565b5050565b60008073ffffffffffffffffffffffffffffffffffffffff168273ffffffffffffffffffffffffffffffffffffffff1603610c13576040517f08c379a0000000000000000000000000000000000000000000000000000000008152600401610c0a90614a70565b60405180910390fd5b600360008373ffffffffffffffffffffffffffffffffffffffff1673ffffffffffffffffffffffffffffffffffffffff168152602001908152602001600020549050919050565b610c64600b6115fd565b6000610c70600b611613565b9050610c7c3382611621565b610c8e81610c8983610480565b61163f565b50565b606060018054610ca09061306e565b80601f0160208091040260200160405190810160405280929190818152602001828054610ccc9061306e565b8015610d195780601f10610cee57610100808354040283529160200191610d19565b820191906000526020600020905b815481529060010190602001808311610cfc57829003601f168201915b5050505050905090565b610d35610d2e611130565b83836116e3565b5050565b610d4a610d44611130565b836111f1565b610d89576040517f08c379a0000000000000000000000000000000000000000000000000000000008152600401610d8090613235565b60405180910390fd5b610d958484848461184f565b50505050565b6060610da6826118ab565b9050919050565b6000600560008473ffffffffffffffffffffffffffffffffffffffff1673ffffffffffffffffffffffffffffffffffffffff16815260200190815260200160002060008373ffffffffffffffffffffffffffffffffffffffff1673ffffffffffffffffffffffffffffffffffffffff16815260200190815260200160002060009054906101000a900460ff16905092915050565b6060610e4c82610e53565b9050919050565b606060006001610e62846119bd565b01905060008167ffffffffffffffff811115610e8157610e80612aa5565b5b6040519080825280601f01601f191660200182016040528015610eb35781602001600182028036833780820191505090505b509050600082602001820190505b600115610f16578080600190039150507f3031323334353637383961626364656600000000000000000000000000000000600a86061a8153600a8581610f0a57610f09614a90565b5b04945060008503610ec1575b819350505050919050565b60606000825103610f435760405180602001604052806000815250905061107f565b60006040518060600160405280604081526020016152db6040913990506000600360028551610f729190614abf565b610f7c9190614af3565b6004610f889190614b24565b67ffffffffffffffff811115610fa157610fa0612aa5565b5b6040519080825280601f01601f191660200182016040528015610fd35781602001600182028036833780820191505090505b509050600182016020820185865187015b8082101561103f576003820191508151603f8160121c168501518453600184019350603f81600c1c168501518453600184019350603f8160061c168501518453600184019350603f8116850151845360018401935050610fe4565b505060038651066001811461105b576002811461106e57611076565b603d6001830353603d6002830353611076565b603d60018303535b50505080925050505b919050565b6000634906490660e01b7bffffffffffffffffffffffffffffffffffffffffffffffffffffffff1916827bffffffffffffffffffffffffffffffffffffffffffffffffffffffff191614806110de57506110dd82611b10565b5b9050919050565b6110ee816115bc565b61112d576040517f08c379a0000000000000000000000000000000000000000000000000000000008152600401611124906147bc565b60405180910390fd5b50565b600033905090565b816004600083815260200190815260200160002060006101000a81548173ffffffffffffffffffffffffffffffffffffffff021916908373ffffffffffffffffffffffffffffffffffffffff160217905550808273ffffffffffffffffffffffffffffffffffffffff166111ab83610998565b73ffffffffffffffffffffffffffffffffffffffff167f8c5be1e5ebec7d5bd14f71427d1e84f3dd0314c0f7b2291e5b200ac8c7c3b92560405160405180910390a45050565b6000806111fd83610998565b90508073ffffffffffffffffffffffffffffffffffffffff168473ffffffffffffffffffffffffffffffffffffffff16148061123f575061123e8185610dad565b5b8061127d57508373ffffffffffffffffffffffffffffffffffffffff166112658461058c565b73ffffffffffffffffffffffffffffffffffffffff16145b91505092915050565b8273ffffffffffffffffffffffffffffffffffffffff166112a682610998565b73ffffffffffffffffffffffffffffffffffffffff16146112fc576040517f08c379a00000000000000000000000000000000000000000000000000000000081526004016112f390614bd8565b60405180910390fd5b600073ffffffffffffffffffffffffffffffffffffffff168273ffffffffffffffffffffffffffffffffffffffff160361136b576040517f08c379a0000000000000000000000000000000000000000000000000000000008152600401611362906149de565b60405180910390fd5b6113788383836001611b8a565b8273ffffffffffffffffffffffffffffffffffffffff1661139882610998565b73ffffffffffffffffffffffffffffffffffffffff16146113ee576040517f08c379a00000000000000000000000000000000000000000000000000000000081526004016113e590614bd8565b60405180910390fd5b6004600082815260200190815260200160002060006101000a81549073ffffffffffffffffffffffffffffffffffffffff02191690556001600360008573ffffffffffffffffffffffffffffffffffffffff1673ffffffffffffffffffffffffffffffffffffffff168152602001908152602001600020600082825403925050819055506001600360008473ffffffffffffffffffffffffffffffffffffffff1673ffffffffffffffffffffffffffffffffffffffff16815260200190815260200160002060008282540192505081905550816002600083815260200190815260200160002060006101000a81548173ffffffffffffffffffffffffffffffffffffffff021916908373ffffffffffffffffffffffffffffffffffffffff160217905550808273ffffffffffffffffffffffffffffffffffffffff168473ffffffffffffffffffffffffffffffffffffffff167fddf252ad1be2c89b69c2b068fc378daa952ba7f163c4a11628f55a4df523b3ef60405160405180910390a461157a8383836001611b9c565b505050565b60006002600083815260200190815260200160002060009054906101000a900473ffffffffffffffffffffffffffffffffffffffff169050919050565b60008073ffffffffffffffffffffffffffffffffffffffff166115de8361157f565b73ffffffffffffffffffffffffffffffffffffffff1614159050919050565b6001816000016000828254019250508190555050565b600081600001549050919050565b61163b828260405180602001604052806000815250611ba2565b5050565b611648826115bc565b611687576040517f08c379a000000000000000000000000000000000000000000000000000000000815260040161167e90614c6a565b60405180910390fd5b80600a600084815260200190815260200160002090816116a79190614e36565b507ff8e1a15aba9398e019f0b49df1a4fde98ee17ae345cb5f6b5e2c27f5033e8ce7826040516116d791906128b4565b60405180910390a15050565b8173ffffffffffffffffffffffffffffffffffffffff168373ffffffffffffffffffffffffffffffffffffffff1603611751576040517f08c379a000000000000000000000000000000000000000000000000000000000815260040161174890614f54565b60405180910390fd5b80600560008573ffffffffffffffffffffffffffffffffffffffff1673ffffffffffffffffffffffffffffffffffffffff16815260200190815260200160002060008473ffffffffffffffffffffffffffffffffffffffff1673ffffffffffffffffffffffffffffffffffffffff16815260200190815260200160002060006101000a81548160ff0219169083151502179055508173ffffffffffffffffffffffffffffffffffffffff168373ffffffffffffffffffffffffffffffffffffffff167f17307eab39ab6107e8899845ad3d59bd9653f200f220920489ca2b5937696c318360405161184291906127c2565b60405180910390a3505050565b61185a848484611286565b61186684848484611bfd565b6118a5576040517f08c379a000000000000000000000000000000000000000000000000000000000815260040161189c90614fe6565b60405180910390fd5b50505050565b60606118b6826110e5565b6000600a600084815260200190815260200160002080546118d69061306e565b80601f01602080910402602001604051908101604052809291908181526020018280546119029061306e565b801561194f5780601f106119245761010080835404028352916020019161194f565b820191906000526020600020905b81548152906001019060200180831161193257829003601f168201915b505050505090506000611960611d84565b905060008151036119755781925050506119b8565b6000825111156119aa578082604051602001611992929190615006565b604051602081830303815290604052925050506119b8565b6119b384611d9b565b925050505b919050565b600080600090507a184f03e93ff9f4daa797ed6e38ed64bf6a1f0100000000000000008310611a1b577a184f03e93ff9f4daa797ed6e38ed64bf6a1f0100000000000000008381611a1157611a10614a90565b5b0492506040810190505b6d04ee2d6d415b85acef81000000008310611a58576d04ee2d6d415b85acef81000000008381611a4e57611a4d614a90565b5b0492506020810190505b662386f26fc100008310611a8757662386f26fc100008381611a7d57611a7c614a90565b5b0492506010810190505b6305f5e1008310611ab0576305f5e1008381611aa657611aa5614a90565b5b0492506008810190505b6127108310611ad5576127108381611acb57611aca614a90565b5b0492506004810190505b60648310611af85760648381611aee57611aed614a90565b5b0492506002810190505b600a8310611b07576001810190505b80915050919050565b60007f780e9d63000000000000000000000000000000000000000000000000000000007bffffffffffffffffffffffffffffffffffffffffffffffffffffffff1916827bffffffffffffffffffffffffffffffffffffffffffffffffffffffff19161480611b835750611b8282611e03565b5b9050919050565b611b9684848484611ee5565b50505050565b50505050565b611bac8383612043565b611bb96000848484611bfd565b611bf8576040517f08c379a0000000000000000000000000000000000000000000000000000000008152600401611bef90614fe6565b60405180910390fd5b505050565b6000611c1e8473ffffffffffffffffffffffffffffffffffffffff16612260565b15611d77578373ffffffffffffffffffffffffffffffffffffffff1663150b7a02611c47611130565b8786866040518563ffffffff1660e01b8152600401611c69949392919061507f565b6020604051808303816000875af1925050508015611ca557506040513d601f19601f82011682018060405250810190611ca291906150e0565b60015b611d27573d8060008114611cd5576040519150601f19603f3d011682016040523d82523d6000602084013e611cda565b606091505b506000815103611d1f576040517f08c379a0000000000000000000000000000000000000000000000000000000008152600401611d1690614fe6565b60405180910390fd5b805181602001fd5b63150b7a0260e01b7bffffffffffffffffffffffffffffffffffffffffffffffffffffffff1916817bffffffffffffffffffffffffffffffffffffffffffffffffffffffff191614915050611d7c565b600190505b949350505050565b606060405180602001604052806000815250905090565b6060611da6826110e5565b6000611db0611d84565b90506000815111611dd05760405180602001604052806000815250611dfb565b80611dda84610e53565b604051602001611deb929190615006565b6040516020818303038152906040525b915050919050565b60007f80ac58cd000000000000000000000000000000000000000000000000000000007bffffffffffffffffffffffffffffffffffffffffffffffffffffffff1916827bffffffffffffffffffffffffffffffffffffffffffffffffffffffff19161480611ece57507f5b5e139f000000000000000000000000000000000000000000000000000000007bffffffffffffffffffffffffffffffffffffffffffffffffffffffff1916827bffffffffffffffffffffffffffffffffffffffffffffffffffffffff1916145b80611ede5750611edd82612283565b5b9050919050565b611ef1848484846122ed565b6001811115611f35576040517f08c379a0000000000000000000000000000000000000000000000000000000008152600401611f2c9061517f565b60405180910390fd5b6000829050600073ffffffffffffffffffffffffffffffffffffffff168573ffffffffffffffffffffffffffffffffffffffff1603611f7c57611f77816122f3565b611fbb565b8373ffffffffffffffffffffffffffffffffffffffff168573ffffffffffffffffffffffffffffffffffffffff1614611fba57611fb9858261233c565b5b5b600073ffffffffffffffffffffffffffffffffffffffff168473ffffffffffffffffffffffffffffffffffffffff1603611ffd57611ff8816124a9565b61203c565b8473ffffffffffffffffffffffffffffffffffffffff168473ffffffffffffffffffffffffffffffffffffffff161461203b5761203a848261257a565b5b5b5050505050565b600073ffffffffffffffffffffffffffffffffffffffff168273ffffffffffffffffffffffffffffffffffffffff16036120b2576040517f08c379a00000000000000000000000000000000000000000000000000000000081526004016120a9906151eb565b60405180910390fd5b6120bb816115bc565b156120fb576040517f08c379a00000000000000000000000000000000000000000000000000000000081526004016120f290615257565b60405180910390fd5b612109600083836001611b8a565b612112816115bc565b15612152576040517f08c379a000000000000000000000000000000000000000000000000000000000815260040161214990615257565b60405180910390fd5b6001600360008473ffffffffffffffffffffffffffffffffffffffff1673ffffffffffffffffffffffffffffffffffffffff16815260200190815260200160002060008282540192505081905550816002600083815260200190815260200160002060006101000a81548173ffffffffffffffffffffffffffffffffffffffff021916908373ffffffffffffffffffffffffffffffffffffffff160217905550808273ffffffffffffffffffffffffffffffffffffffff16600073ffffffffffffffffffffffffffffffffffffffff167fddf252ad1be2c89b69c2b068fc378daa952ba7f163c4a11628f55a4df523b3ef60405160405180910390a461225c600083836001611b9c565b5050565b6000808273ffffffffffffffffffffffffffffffffffffffff163b119050919050565b60007f01ffc9a7000000000000000000000000000000000000000000000000000000007bffffffffffffffffffffffffffffffffffffffffffffffffffffffff1916827bffffffffffffffffffffffffffffffffffffffffffffffffffffffff1916149050919050565b50505050565b6008805490506009600083815260200190815260200160002081905550600881908060018154018082558091505060019003906000526020600020016000909190919091505550565b6000600161234984610ba3565b6123539190615277565b9050600060076000848152602001908152602001600020549050818114612438576000600660008673ffffffffffffffffffffffffffffffffffffffff1673ffffffffffffffffffffffffffffffffffffffff168152602001908152602001600020600084815260200190815260200160002054905080600660008773ffffffffffffffffffffffffffffffffffffffff1673ffffffffffffffffffffffffffffffffffffffff168152602001908152602001600020600084815260200190815260200160002081905550816007600083815260200190815260200160002081905550505b6007600084815260200190815260200160002060009055600660008573ffffffffffffffffffffffffffffffffffffffff1673ffffffffffffffffffffffffffffffffffffffff16815260200190815260200160002060008381526020019081526020016000206000905550505050565b600060016008805490506124bd9190615277565b90506000600960008481526020019081526020016000205490506000600883815481106124ed576124ec6146ca565b5b90600052602060002001549050806008838154811061250f5761250e6146ca565b5b90600052602060002001819055508160096000838152602001908152602001600020819055506009600085815260200190815260200160002060009055600880548061255e5761255d6152ab565b5b6001900381819060005260206000200160009055905550505050565b600061258583610ba3565b905081600660008573ffffffffffffffffffffffffffffffffffffffff1673ffffffffffffffffffffffffffffffffffffffff168152602001908152602001600020600083815260200190815260200160002081905550806007600084815260200190815260200160002081905550505050565b6000604051905090565b600080fd5b600080fd5b6000819050919050565b6126208161260d565b811461262b57600080fd5b50565b60008135905061263d81612617565b92915050565b60006020828403121561265957612658612603565b5b60006126678482850161262e565b91505092915050565b600081519050919050565b600082825260208201905092915050565b60005b838110156126aa57808201518184015260208101905061268f565b60008484015250505050565b6000601f19601f8301169050919050565b60006126d282612670565b6126dc818561267b565b93506126ec81856020860161268c565b6126f5816126b6565b840191505092915050565b6000602082019050818103600083015261271a81846126c7565b905092915050565b60007fffffffff0000000000000000000000000000000000000000000000000000000082169050919050565b61275781612722565b811461276257600080fd5b50565b6000813590506127748161274e565b92915050565b6000602082840312156127905761278f612603565b5b600061279e84828501612765565b91505092915050565b60008115159050919050565b6127bc816127a7565b82525050565b60006020820190506127d760008301846127b3565b92915050565b600073ffffffffffffffffffffffffffffffffffffffff82169050919050565b6000612808826127dd565b9050919050565b612818816127fd565b82525050565b6000602082019050612833600083018461280f565b92915050565b612842816127fd565b811461284d57600080fd5b50565b60008135905061285f81612839565b92915050565b6000806040838503121561287c5761287b612603565b5b600061288a85828601612850565b925050602061289b8582860161262e565b9150509250929050565b6128ae8161260d565b82525050565b60006020820190506128c960008301846128a5565b92915050565b6000806000606084860312156128e8576128e7612603565b5b60006128f686828701612850565b935050602061290786828701612850565b92505060406129188682870161262e565b9150509250925092565b600081519050919050565b600082825260208201905092915050565b6000819050602082019050919050565b6129578161260d565b82525050565b6000612969838361294e565b60208301905092915050565b6000602082019050919050565b600061298d82612922565b612997818561292d565b93506129a28361293e565b8060005b838110156129d35781516129ba888261295d565b97506129c583612975565b9250506001810190506129a6565b5085935050505092915050565b600060208201905081810360008301526129fa8184612982565b905092915050565b600060208284031215612a1857612a17612603565b5b6000612a2684828501612850565b91505092915050565b612a38816127a7565b8114612a4357600080fd5b50565b600081359050612a5581612a2f565b92915050565b60008060408385031215612a7257612a71612603565b5b6000612a8085828601612850565b9250506020612a9185828601612a46565b9150509250929050565b600080fd5b600080fd5b7f4e487b7100000000000000000000000000000000000000000000000000000000600052604160045260246000fd5b612add826126b6565b810181811067ffffffffffffffff82111715612afc57612afb612aa5565b5b80604052505050565b6000612b0f6125f9565b9050612b1b8282612ad4565b919050565b600067ffffffffffffffff821115612b3b57612b3a612aa5565b5b612b44826126b6565b9050602081019050919050565b82818337600083830152505050565b6000612b73612b6e84612b20565b612b05565b905082815260208101848484011115612b8f57612b8e612aa0565b5b612b9a848285612b51565b509392505050565b600082601f830112612bb757612bb6612a9b565b5b8135612bc7848260208601612b60565b91505092915050565b60008060008060808587031215612bea57612be9612603565b5b6000612bf887828801612850565b9450506020612c0987828801612850565b9350506040612c1a8782880161262e565b925050606085013567ffffffffffffffff811115612c3b57612c3a612608565b5b612c4787828801612ba2565b91505092959194509250565b60008060408385031215612c6a57612c69612603565b5b6000612c7885828601612850565b9250506020612c8985828601612850565b9150509250929050565b600081905092915050565b7f7b00000000000000000000000000000000000000000000000000000000000000600082015250565b6000612cd4600183612c93565b9150612cdf82612c9e565b600182019050919050565b7f226e616d65223a2022422d4e4654202300000000000000000000000000000000600082015250565b6000612d20601083612c93565b9150612d2b82612cea565b601082019050919050565b6000612d4182612670565b612d4b8185612c93565b9350612d5b81856020860161268c565b80840191505092915050565b7f222c000000000000000000000000000000000000000000000000000000000000600082015250565b6000612d9d600283612c93565b9150612da882612d67565b600282019050919050565b7f226465736372697074696f6e223a20224a6566666572736f6e206d696e74696e60008201527f672061206761736c657373204e465420706f7765726564206279204269636f6e60208201527f6f6d792053444b222c0000000000000000000000000000000000000000000000604082015250565b6000612e35604983612c93565b9150612e4082612db3565b604982019050919050565b7f22696d616765223a202200000000000000000000000000000000000000000000600082015250565b6000612e81600a83612c93565b9150612e8c82612e4b565b600a82019050919050565b7f226c696e6b747265655f75726c223a202268747470733a2f2f6c696e6b74722e60008201527f65652f6269636f6e6f6d7964657672656c000000000000000000000000000000602082015250565b6000612ef3603183612c93565b9150612efe82612e97565b603182019050919050565b7f7d00000000000000000000000000000000000000000000000000000000000000600082015250565b6000612f3f600183612c93565b9150612f4a82612f09565b600182019050919050565b6000612f6082612cc7565b9150612f6b82612d13565b9150612f778285612d36565b9150612f8282612d90565b9150612f8d82612e28565b9150612f9882612e74565b9150612fa48284612d36565b9150612faf82612d90565b9150612fba82612ee6565b9150612fc582612f32565b91508190509392505050565b7f646174613a6170706c69636174696f6e2f6a736f6e3b6261736536342c000000600082015250565b6000613007601d83612c93565b915061301282612fd1565b601d82019050919050565b600061302882612ffa565b91506130348284612d36565b915081905092915050565b7f4e487b7100000000000000000000000000000000000000000000000000000000600052602260045260246000fd5b6000600282049050600182168061308657607f821691505b6020821081036130995761309861303f565b5b50919050565b7f4552433732313a20617070726f76616c20746f2063757272656e74206f776e6560008201527f7200000000000000000000000000000000000000000000000000000000000000602082015250565b60006130fb60218361267b565b91506131068261309f565b604082019050919050565b6000602082019050818103600083015261312a816130ee565b9050919050565b7f4552433732313a20617070726f76652063616c6c6572206973206e6f7420746f60008201527f6b656e206f776e6572206f7220617070726f76656420666f7220616c6c000000602082015250565b600061318d603d8361267b565b915061319882613131565b604082019050919050565b600060208201905081810360008301526131bc81613180565b9050919050565b7f4552433732313a2063616c6c6572206973206e6f7420746f6b656e206f776e6560008201527f72206f7220617070726f76656400000000000000000000000000000000000000602082015250565b600061321f602d8361267b565b915061322a826131c3565b604082019050919050565b6000602082019050818103600083015261324e81613212565b9050919050565b7f455243373231456e756d657261626c653a206f776e657220696e646578206f7560008201527f74206f6620626f756e6473000000000000000000000000000000000000000000602082015250565b60006132b1602b8361267b565b91506132bc82613255565b604082019050919050565b600060208201905081810360008301526132e0816132a4565b9050919050565b7f3c73766720786d6c6e733d22687474703a2f2f7777772e77332e6f72672f323060008201527f30302f737667222077696474683d2236323422206865696768743d223632352260208201527f2076696577426f783d223020302036323420363235222066696c6c3d226e6f6e60408201527f65223e3c672069643d224269636f6e6f6d795f4e4654223e3c7265637420776960608201527f6474683d2236323422206865696768743d2236323422207472616e73666f726d60808201527f3d227472616e736c617465283020302e3529222066696c6c3d2223464634453160a08201527f37222f3e3c726563742069643d2252656374616e676c65203334392220783d2260c08201527f31362e3132372220793d2232302e34363538222077696474683d223539312e3760e08201527f343622206865696768743d223538342e303638222072783d223330222066696c6101008201527f6c3d222331443144314422207374726f6b653d22776869746522207374726f6b6101208201527f652d77696474683d2232222f3e3c706174682069643d2252656374616e676c656101408201527f203331312220643d224d313137203530394c31313720313738433131372031366101608201527f352e323937203132372e3239372031353520313430203135354c3437302031356101808201527f35433438322e3730332031353520343933203136352e323937203439332031376101a08201527f384c3439332035303943343933203532312e373033203438322e3730332035336101c08201527f3220343730203533324c31343020353332433132372e323937203533322031316101e08201527f37203532312e37303320313137203530395a222066696c6c3d222344394439446102008201527f39222066696c6c2d6f7061636974793d22302e383122207374726f6b653d22776102208201527f6869746522207374726f6b652d77696474683d2232222f3e3c672069643d224d6102408201527f61736b2067726f7570223e3c6d61736b2069643d226d61736b305f313537375f6102608201527f3631333622207374796c653d226d61736b2d747970653a616c70686122206d616102808201527f736b556e6974733d227573657253706163654f6e5573652220783d22313833226102a08201527f20793d22323839222077696474683d2233393122206865696768743d223237386102c08201527f223e3c706174682069643d2252656374616e676c65203331322220643d224d326102e08201527f3037203536352e373336433139342e323937203536352e3733362031383420356103008201527f35352e34333920313834203534322e3733364c313834203331334331383420336103208201527f30302e323937203139342e3239372032393020323037203239304c3534392e386103408201527f393920323930433536322e36303220323930203537322e383939203330302e326103608201527f3937203537322e383939203331334c3537322e383939203534322e37333643356103808201527f37322e383939203535352e343339203536322e363032203536352e37333620356103a08201527f34392e383939203536352e3733364c323037203536352e3733365a222066696c6103c08201527f6c3d222344394439443922207374726f6b653d22776869746522207374726f6b6103e08201527f652d77696474683d2232222f3e3c2f6d61736b3e3c67206d61736b3d2275726c6104008201527f28236d61736b305f313537375f3631333629223e3c672069643d2247726f75706104208201527f2038383136223e3c672069643d2247726f75702038383133223e3c672069643d6104408201527f2247726f7570223e3c706174682069643d22566563746f722220643d224d35376104608201527f312e363139203533322e3736384c3538322e3739203532392e3231364c3538366104808201527f2e393538203539302e3738354c3530362e383231203535332e3430364c3537316104a08201527f2e363139203533322e3736385a222066696c6c3d2223464634453137222f3e3c6104c08201527f706174682069643d22566563746f725f322220643d224d3437372e33333220366104e08201527f33342e39324c3530362e3832203535332e3430374c3538362e393537203539306105008201527f2e3738364c3437372e3932203636382e3130314c3436372e333134203636322e6105208201527f3631394c3437372e333332203633342e39325a222066696c6c3d2223464634456105408201527f3137222f3e3c706174682069643d22566563746f725f332220643d224d3339366105608201527f2e313331203432372e3333374c3333392e383733203535372e3539394c3333386105808201527f2e313732203436332e3534354c3339362e313331203432372e3333375a2220666105a08201527f696c6c3d2223464634453137222f3e3c706174682069643d22566563746f725f6105c08201527f342220643d224d3436332e393332203532332e3134374c3439362e32393220356105e08201527f33392e3837334c3435392e333936203635342e3437344c3335312e31383920356106008201527f39382e3534374c3436332e393332203532332e3134375a222066696c6c3d22236106208201527f464634453137222f3e3c706174682069643d22566563746f725f352220643d226106408201527f4d3435362e373937203338372e3133314c3436332e393331203532332e3134376106608201527f4c3335312e313837203539382e3534374c3334382e3932203535392e3536334c6106808201527f3335332e303036203534392e3530374c3339392e393736203433332e3935354c6106a08201527f3430342e3731203432322e3332324c3435362e373937203338372e3133315a226106c08201527f2066696c6c3d2223464634453137222f3e3c706174682069643d22566563746f6106e08201527f725f362220643d224d3435362e373935203338372e3133314c3537372e3139356107008201527f203434392e3336314c3538312e323538203532312e3637374c3439362e3238386107208201527f203533392e3837324c3436332e393239203532332e3134374c3435362e3739356107408201527f203338372e3133315a222066696c6c3d2223464634453137222f3e3c706174686107608201527f2069643d22566563746f725f372220643d224d3439362e323932203533392e386107808201527f37334c3538312e323631203532312e3637384c3537312e363138203533322e376107a08201527f36394c3530362e3832203535332e3430374c3437372e333332203633342e39326107c08201527f314c3435392e333936203635342e3437354c3439362e323932203533392e38376107e08201527f335a222066696c6c3d22626c61636b222f3e3c706174682069643d22566563746108008201527f6f725f382220643d224d3339362e313334203432372e3333354c3339382e39396108208201527f38203433332e3534354c3339392e393738203433332e3935354c3335332e30306108408201527f38203534392e3530374c3335322e373631203534392e3430334c3333392e38376108608201527f35203535372e3539374c3339362e313334203432372e3333355a222066696c6c6108808201527f3d22626c61636b222f3e3c2f673e3c672069643d2247726f75705f32223e3c706108a08201527f6174682069643d22566563746f725f392220643d224d3335312e3138392035396108c08201527f382e3534374c3435392e333936203635342e3437344c3439362e3239322035336108e08201527f392e3837334c3436332e393332203532332e3134374c3335312e3138392035396109008201527f382e3534375a22207374726f6b653d22776869746522207374726f6b652d77696109208201527f6474683d223222207374726f6b652d6d697465726c696d69743d223130222f3e6109408201527f3c706174682069643d22566563746f725f31302220643d224d3335312e3138376109608201527f203539382e3534374c3334382e3932203535392e3536334c3335332e303036206109808201527f3534392e3530374c3339392e393736203433332e3935354c3430342e373120346109a08201527f32322e3332324c3435362e373937203338372e3133314c3436332e39333120356109c08201527f32332e31343722207374726f6b653d22776869746522207374726f6b652d77696109e08201527f6474683d223222207374726f6b652d6d697465726c696d69743d223130222f3e610a008201527f3c706174682069643d22566563746f725f31312220643d224d3439362e323838610a208201527f203533392e3837324c3538312e323538203532312e3637374c3537372e313935610a408201527f203434392e3336314c3435362e373935203338372e31333122207374726f6b65610a608201527f3d22776869746522207374726f6b652d77696474683d223222207374726f6b65610a808201527f2d6d697465726c696d69743d223130222f3e3c706174682069643d2256656374610aa08201527f6f725f31322220643d224d3339362e313331203432372e3333374c3333382e31610ac08201527f3732203436332e3534354c3333392e383733203535372e3539394c3339362e31610ae08201527f3331203432372e3333375a22207374726f6b653d22776869746522207374726f610b008201527f6b652d77696474683d223222207374726f6b652d6d697465726c696d69743d22610b208201527f3130222f3e3c706174682069643d22566563746f725f31352220643d224d3437610b408201527f372e333332203633342e39324c3436372e333134203636322e3631394c343737610b608201527f2e3932203636382e3130314c3538362e393537203539302e3738364c3538322e610b808201527f3739203532392e3231374c3537312e363139203533322e3736394c3530362e38610ba08201527f32203535332e3430374c3437372e333332203633342e39325a22207374726f6b610bc08201527f653d22776869746522207374726f6b652d77696474683d223222207374726f6b610be08201527f652d6d697465726c696d69743d223130222f3e3c2f673e3c2f673e3c2f673e3c610c008201527f2f673e3c2f673e3c2f673e3c7374796c653e2e62617365207b2066696c6c3a20610c208201527f626c61636b3b20666f6e742d66616d696c793a2047696c6c2053616e733b2066610c408201527f6f6e742d73697a653a20333070783b207d3c2f7374796c653e3c7374796c653e610c608201527f2e6261736532207b2066696c6c3a2077686974653b20666f6e742d66616d696c610c808201527f793a2047696c6c2053616e733b20666f6e742d73697a653a20363070783b207d610ca08201527f3c2f7374796c653e3c7465787420783d223530252220793d223135252220636c610cc08201527f6173733d2262617365322220646f6d696e616e742d626173656c696e653d226d610ce08201527f6964646c652220746578742d616e63686f723d226d6964646c65223e00000000610d0082015250565b60006142ef610d1c83612c93565b91506142fa826132e7565b610d1c82019050919050565b7f4249434f4e4f4d59000000000000000000000000000000000000000000000000600082015250565b600061433c600883612c93565b915061434782614306565b600882019050919050565b7f3c2f746578743e3c7465787420783d223530252220793d223435252220636c6160008201527f73733d22626173652220646f6d696e616e742d626173656c696e653d226d696460208201527f646c652220746578742d616e63686f723d226d6964646c65223e000000000000604082015250565b60006143d4605a83612c93565b91506143df82614352565b605a82019050919050565b7f4e4654204d696e74656420776974680000000000000000000000000000000000600082015250565b6000614420600f83612c93565b915061442b826143ea565b600f82019050919050565b7f3c2f746578743e3c7465787420783d223530252220793d223538252220636c6160008201527f73733d22626173652220646f6d696e616e742d626173656c696e653d226d696460208201527f646c652220746578742d616e63686f723d226d6964646c65223e000000000000604082015250565b60006144b8605a83612c93565b91506144c382614436565b605a82019050919050565b7f20546f6b656e4944202320000000000000000000000000000000000000000000600082015250565b6000614504600b83612c93565b915061450f826144ce565b600b82019050919050565b7f3c2f746578743e3c2f7376673e00000000000000000000000000000000000000600082015250565b6000614550600d83612c93565b915061455b8261451a565b600d82019050919050565b6000614571826142e1565b915061457c8261432f565b9150614587826143c7565b915061459282614413565b915061459d826144ab565b91506145a8826144f7565b91506145b48284612d36565b91506145bf82614543565b915081905092915050565b7f646174613a696d6167652f7376672b786d6c3b6261736536342c000000000000600082015250565b6000614600601a83612c93565b915061460b826145ca565b601a82019050919050565b6000614621826145f3565b915061462d8284612d36565b915081905092915050565b7f455243373231456e756d657261626c653a20676c6f62616c20696e646578206f60008201527f7574206f6620626f756e64730000000000000000000000000000000000000000602082015250565b6000614694602c8361267b565b915061469f82614638565b604082019050919050565b600060208201905081810360008301526146c381614687565b9050919050565b7f4e487b7100000000000000000000000000000000000000000000000000000000600052603260045260246000fd5b7f4e487b7100000000000000000000000000000000000000000000000000000000600052601160045260246000fd5b60006147338261260d565b91507fffffffffffffffffffffffffffffffffffffffffffffffffffffffffffffffff8203614765576147646146f9565b5b600182019050919050565b7f4552433732313a20696e76616c696420746f6b656e2049440000000000000000600082015250565b60006147a660188361267b565b91506147b182614770565b602082019050919050565b600060208201905081810360008301526147d581614799565b9050919050565b7f4552433732313a20746f6b656e20646f6573206e6f7420657869737400000000600082015250565b6000614812601c8361267b565b915061481d826147dc565b602082019050919050565b6000602082019050818103600083015261484181614805565b9050919050565b7f4552433732313a207472616e736665722063616c6c6572206973206e6f74206f60008201527f776e6572206e6f7220617070726f766564000000000000000000000000000000602082015250565b60006148a460318361267b565b91506148af82614848565b604082019050919050565b600060208201905081810360008301526148d381614897565b9050919050565b7f4552433732313a207472616e73666572206f6620746f6b656e2074686174206960008201527f73206e6f74206f776e0000000000000000000000000000000000000000000000602082015250565b600061493660298361267b565b9150614941826148da565b604082019050919050565b6000602082019050818103600083015261496581614929565b9050919050565b7f4552433732313a207472616e7366657220746f20746865207a65726f2061646460008201527f7265737300000000000000000000000000000000000000000000000000000000602082015250565b60006149c860248361267b565b91506149d38261496c565b604082019050919050565b600060208201905081810360008301526149f7816149bb565b9050919050565b7f4552433732313a2061646472657373207a65726f206973206e6f74206120766160008201527f6c6964206f776e65720000000000000000000000000000000000000000000000602082015250565b6000614a5a60298361267b565b9150614a65826149fe565b604082019050919050565b60006020820190508181036000830152614a8981614a4d565b9050919050565b7f4e487b7100000000000000000000000000000000000000000000000000000000600052601260045260246000fd5b6000614aca8261260d565b9150614ad58361260d565b9250828201905080821115614aed57614aec6146f9565b5b92915050565b6000614afe8261260d565b9150614b098361260d565b925082614b1957614b18614a90565b5b828204905092915050565b6000614b2f8261260d565b9150614b3a8361260d565b9250828202614b488161260d565b91508282048414831517614b5f57614b5e6146f9565b5b5092915050565b7f4552433732313a207472616e736665722066726f6d20696e636f72726563742060008201527f6f776e6572000000000000000000000000000000000000000000000000000000602082015250565b6000614bc260258361267b565b9150614bcd82614b66565b604082019050919050565b60006020820190508181036000830152614bf181614bb5565b9050919050565b7f45524337323155524953746f726167653a2055524920736574206f66206e6f6e60008201527f6578697374656e7420746f6b656e000000000000000000000000000000000000602082015250565b6000614c54602e8361267b565b9150614c5f82614bf8565b604082019050919050565b60006020820190508181036000830152614c8381614c47565b9050919050565b60008190508160005260206000209050919050565b60006020601f8301049050919050565b600082821b905092915050565b600060088302614cec7fffffffffffffffffffffffffffffffffffffffffffffffffffffffffffffffff82614caf565b614cf68683614caf565b95508019841693508086168417925050509392505050565b6000819050919050565b6000614d33614d2e614d298461260d565b614d0e565b61260d565b9050919050565b6000819050919050565b614d4d83614d18565b614d61614d5982614d3a565b848454614cbc565b825550505050565b600090565b614d76614d69565b614d81818484614d44565b505050565b5b81811015614da557614d9a600082614d6e565b600181019050614d87565b5050565b601f821115614dea57614dbb81614c8a565b614dc484614c9f565b81016020851015614dd3578190505b614de7614ddf85614c9f565b830182614d86565b50505b505050565b600082821c905092915050565b6000614e0d60001984600802614def565b1980831691505092915050565b6000614e268383614dfc565b9150826002028217905092915050565b614e3f82612670565b67ffffffffffffffff811115614e5857614e57612aa5565b5b614e62825461306e565b614e6d828285614da9565b600060209050601f831160018114614ea05760008415614e8e578287015190505b614e988582614e1a565b865550614f00565b601f198416614eae86614c8a565b60005b82811015614ed657848901518255600182019150602085019450602081019050614eb1565b86831015614ef35784890151614eef601f891682614dfc565b8355505b6001600288020188555050505b505050505050565b7f4552433732313a20617070726f766520746f2063616c6c657200000000000000600082015250565b6000614f3e60198361267b565b9150614f4982614f08565b602082019050919050565b60006020820190508181036000830152614f6d81614f31565b9050919050565b7f4552433732313a207472616e7366657220746f206e6f6e20455243373231526560008201527f63656976657220696d706c656d656e7465720000000000000000000000000000602082015250565b6000614fd060328361267b565b9150614fdb82614f74565b604082019050919050565b60006020820190508181036000830152614fff81614fc3565b9050919050565b60006150128285612d36565b915061501e8284612d36565b91508190509392505050565b600081519050919050565b600082825260208201905092915050565b60006150518261502a565b61505b8185615035565b935061506b81856020860161268c565b615074816126b6565b840191505092915050565b6000608082019050615094600083018761280f565b6150a1602083018661280f565b6150ae60408301856128a5565b81810360608301526150c08184615046565b905095945050505050565b6000815190506150da8161274e565b92915050565b6000602082840312156150f6576150f5612603565b5b6000615104848285016150cb565b91505092915050565b7f455243373231456e756d657261626c653a20636f6e736563757469766520747260008201527f616e7366657273206e6f7420737570706f727465640000000000000000000000602082015250565b600061516960358361267b565b91506151748261510d565b604082019050919050565b600060208201905081810360008301526151988161515c565b9050919050565b7f4552433732313a206d696e7420746f20746865207a65726f2061646472657373600082015250565b60006151d560208361267b565b91506151e08261519f565b602082019050919050565b60006020820190508181036000830152615204816151c8565b9050919050565b7f4552433732313a20746f6b656e20616c7265616479206d696e74656400000000600082015250565b6000615241601c8361267b565b915061524c8261520b565b602082019050919050565b6000602082019050818103600083015261527081615234565b9050919050565b60006152828261260d565b915061528d8361260d565b92508282039050818111156152a5576152a46146f9565b5b92915050565b7f4e487b7100000000000000000000000000000000000000000000000000000000600052603160045260246000fdfe4142434445464748494a4b4c4d4e4f505152535455565758595a6162636465666768696a6b6c6d6e6f707172737475767778797a303132333435363738392b2fa2646970667358221220d0dfd179af4b56b001d1e231c6a2032adc0bbf602ce6ccf590ae8b1ce27acd5664736f6c63430008120033",
    "linkReferences": {},
    "deployedLinkReferences": {}
}